{
  "contractName": "FlashLoan",
  "abi": [
    {
      "inputs": [
        {
          "internalType": "address",
          "name": "_addressProvider",
          "type": "address"
        }
      ],
      "stateMutability": "nonpayable",
      "type": "constructor"
    },
    {
      "inputs": [],
      "name": "ADDRESSES_PROVIDER",
      "outputs": [
        {
          "internalType": "contract IPoolAddressesProvider",
          "name": "",
          "type": "address"
        }
      ],
      "stateMutability": "view",
      "type": "function"
    },
    {
      "inputs": [],
      "name": "POOL",
      "outputs": [
        {
          "internalType": "contract IPool",
          "name": "",
          "type": "address"
        }
      ],
      "stateMutability": "view",
      "type": "function"
    },
    {
      "stateMutability": "payable",
      "type": "receive"
    },
    {
      "inputs": [
        {
          "internalType": "address",
          "name": "asset",
          "type": "address"
        },
        {
          "internalType": "uint256",
          "name": "amount",
          "type": "uint256"
        },
        {
          "internalType": "uint256",
          "name": "premium",
          "type": "uint256"
        },
        {
          "internalType": "address",
          "name": "initiator",
          "type": "address"
        },
        {
          "internalType": "bytes",
          "name": "params",
          "type": "bytes"
        }
      ],
      "name": "executeOperation",
      "outputs": [
        {
          "internalType": "bool",
          "name": "",
          "type": "bool"
        }
      ],
      "stateMutability": "nonpayable",
      "type": "function"
    },
    {
      "inputs": [
        {
          "internalType": "address",
          "name": "_token",
          "type": "address"
        },
        {
          "internalType": "address",
          "name": "tokenb",
          "type": "address"
        },
        {
          "internalType": "uint256",
          "name": "_amount",
          "type": "uint256"
        }
      ],
      "name": "requestFlashLoan",
      "outputs": [],
      "stateMutability": "nonpayable",
      "type": "function"
    },
    {
      "inputs": [
        {
          "internalType": "address",
          "name": "_tokenAddress",
          "type": "address"
        }
      ],
      "name": "getBalance",
      "outputs": [
        {
          "internalType": "uint256",
          "name": "",
          "type": "uint256"
        }
      ],
      "stateMutability": "view",
      "type": "function"
    },
    {
      "inputs": [
        {
          "internalType": "address",
          "name": "_tokenAddress",
          "type": "address"
        }
      ],
      "name": "withdraw",
      "outputs": [],
      "stateMutability": "nonpayable",
      "type": "function"
    }
  ],
  "bytecode": "0x60e060405234801561001057600080fd5b50604051610f2c380380610f2c83398101604081905261002f916100e9565b80806001600160a01b03166080816001600160a01b031681525050806001600160a01b031663026b1d5f6040518163ffffffff1660e01b8152600401602060405180830381865afa158015610088573d6000803e3d6000fd5b505050506040513d601f19601f820116820180604052508101906100ac91906100e9565b6001600160a01b031660a0525050600080546001600160a01b03191633179055737a250d5630b4cf539739df2c5dacb4c659f2488d60c052610119565b6000602082840312156100fb57600080fd5b81516001600160a01b038116811461011257600080fd5b9392505050565b60805160a05160c051610dbb610171600039600081816105d301528181610654015281816106f00152818161086e015261096001526000818161012a0152818161025601526104d60152600060870152610dbb6000f3fe6080604052600436106100695760003560e01c80637535d246116100435780637535d24614610118578063ea3e2d301461014c578063f8b2cb4f1461016c57600080fd5b80630542975c146100755780631b11d0ff146100c657806351cff8d9146100f657600080fd5b3661007057005b600080fd5b34801561008157600080fd5b506100a97f000000000000000000000000000000000000000000000000000000000000000081565b6040516001600160a01b0390911681526020015b60405180910390f35b3480156100d257600080fd5b506100e66100e1366004610a1d565b61019a565b60405190151581526020016100bd565b34801561010257600080fd5b50610116610111366004610ac7565b6102e6565b005b34801561012457600080fd5b506100a97f000000000000000000000000000000000000000000000000000000000000000081565b34801561015857600080fd5b50610116610167366004610aeb565b61046a565b34801561017857600080fd5b5061018c610187366004610ac7565b61054b565b6040519081526020016100bd565b6002546000906101b59088906001600160a01b0316886105bc565b6002546040516370a0823160e01b815230600482015261022c916001600160a01b031690899082906370a0823190602401602060405180830381865afa158015610203573d6000803e3d6000fd5b505050506040513d601f19601f820116820180604052508101906102279190610b2c565b6105bc565b60008560035461023c9190610b45565b60015460405163095ea7b360e01b81526001600160a01b037f0000000000000000000000000000000000000000000000000000000000000000811660048301526024820184905292935091169063095ea7b3906044016020604051808303816000875af11580156102b1573d6000803e3d6000fd5b505050506040513d601f19601f820116820180604052508101906102d59190610b6b565b5060019150505b9695505050505050565b6000546001600160a01b0316331461036a5760405162461bcd60e51b815260206004820152602e60248201527f4f6e6c792074686520636f6e7472616374206f776e65722063616e2063616c6c60448201527f20746869732066756e6374696f6e000000000000000000000000000000000000606482015260840160405180910390fd5b6040516370a0823160e01b815230600482015281906001600160a01b0382169063a9059cbb90339083906370a0823190602401602060405180830381865afa1580156103ba573d6000803e3d6000fd5b505050506040513d601f19601f820116820180604052508101906103de9190610b2c565b6040517fffffffff0000000000000000000000000000000000000000000000000000000060e085901b1681526001600160a01b03909216600483015260248201526044016020604051808303816000875af1158015610441573d6000803e3d6000fd5b505050506040513d601f19601f820116820180604052508101906104659190610b6b565b505050565b6003819055604080516020810182526000808252600180546001600160a01b038089167fffffffffffffffffffffffff000000000000000000000000000000000000000092831681179093556002805489831693169290921790915593516310ac2ddf60e21b815230947f000000000000000000000000000000000000000000000000000000000000000016916342b0b77c91610511918791899088908890600401610b8d565b600060405180830381600087803b15801561052b57600080fd5b505af115801561053f573d6000803e3d6000fd5b50505050505050505050565b6040516370a0823160e01b81523060048201526000906001600160a01b038316906370a0823190602401602060405180830381865afa158015610592573d6000803e3d6000fd5b505050506040513d601f19601f820116820180604052508101906105b69190610b2c565b92915050565b60405163095ea7b360e01b81526001600160a01b037f0000000000000000000000000000000000000000000000000000000000000000811660048301526024820183905284169063095ea7b3906044016020604051808303816000875af115801561062b573d6000803e3d6000fd5b505050506040513d601f19601f8201168201806040525081019061064f9190610b6b565b5060607f00000000000000000000000000000000000000000000000000000000000000006001600160a01b031663ad5c46486040518163ffffffff1660e01b8152600401602060405180830381865afa1580156106b0573d6000803e3d6000fd5b505050506040513d601f19601f820116820180604052508101906106d49190610c0d565b6001600160a01b0316846001600160a01b0316148061078557507f00000000000000000000000000000000000000000000000000000000000000006001600160a01b031663ad5c46486040518163ffffffff1660e01b8152600401602060405180830381865afa15801561074c573d6000803e3d6000fd5b505050506040513d601f19601f820116820180604052508101906107709190610c0d565b6001600160a01b0316836001600160a01b0316145b1561081757604080516002808252606082018352909160208301908036833701905050905083816000815181106107be576107be610c40565b60200260200101906001600160a01b031690816001600160a01b03168152505082816001815181106107f2576107f2610c40565b60200260200101906001600160a01b031690816001600160a01b031681525050610956565b604080516003808252608082019092529060208201606080368337019050509050838160008151811061084c5761084c610c40565b60200260200101906001600160a01b031690816001600160a01b0316815250507f00000000000000000000000000000000000000000000000000000000000000006001600160a01b031663ad5c46486040518163ffffffff1660e01b8152600401602060405180830381865afa1580156108ca573d6000803e3d6000fd5b505050506040513d601f19601f820116820180604052508101906108ee9190610c0d565b8160018151811061090157610901610c40565b60200260200101906001600160a01b031690816001600160a01b031681525050828160028151811061093557610935610c40565b60200260200101906001600160a01b031690816001600160a01b0316815250505b6001600160a01b037f0000000000000000000000000000000000000000000000000000000000000000166338ed173983600084306109974262017890610b45565b6040518663ffffffff1660e01b81526004016109b7959493929190610c56565b6000604051808303816000875af11580156109d6573d6000803e3d6000fd5b505050506040513d6000823e601f3d908101601f191682016040526109fe9190810190610cc7565b5050505050565b6001600160a01b0381168114610a1a57600080fd5b50565b60008060008060008060a08789031215610a3657600080fd5b8635610a4181610a05565b955060208701359450604087013593506060870135610a5f81610a05565b9250608087013567ffffffffffffffff80821115610a7c57600080fd5b818901915089601f830112610a9057600080fd5b813581811115610a9f57600080fd5b8a6020828501011115610ab157600080fd5b6020830194508093505050509295509295509295565b600060208284031215610ad957600080fd5b8135610ae481610a05565b9392505050565b600080600060608486031215610b0057600080fd5b8335610b0b81610a05565b92506020840135610b1b81610a05565b929592945050506040919091013590565b600060208284031215610b3e57600080fd5b5051919050565b60008219821115610b6657634e487b7160e01b600052601160045260246000fd5b500190565b600060208284031215610b7d57600080fd5b81518015158114610ae457600080fd5b60006001600160a01b03808816835260208188168185015286604085015260a06060850152855191508160a085015260005b82811015610bdb5786810182015185820160c001528101610bbf565b82811115610bed57600060c084870101525b5050601f01601f1916820160c00190506102dc608083018461ffff169052565b600060208284031215610c1f57600080fd5b8151610ae481610a05565b634e487b7160e01b600052604160045260246000fd5b634e487b7160e01b600052603260045260246000fd5b600060a082018783526020878185015260a0604085015281875180845260c086019150828901935060005b81811015610ca65784516001600160a01b031683529383019391830191600101610c81565b50506001600160a01b03969096166060850152505050608001529392505050565b60006020808385031215610cda57600080fd5b825167ffffffffffffffff80821115610cf257600080fd5b818501915085601f830112610d0657600080fd5b815181811115610d1857610d18610c2a565b8060051b604051601f19603f83011681018181108582111715610d3d57610d3d610c2a565b604052918252848201925083810185019188831115610d5b57600080fd5b938501935b82851015610d7957845184529385019392850192610d60565b9897505050505050505056fea2646970667358221220fd38c40d6cbc3153ce2b2af1b7fbe3086bf0233f5b301ee369a359be6dd5dbfe64736f6c634300080a0033",
  "immutableReferences": {
    "92": [
      {
        "length": 32,
        "start": 135
      }
    ],
    "96": [
      {
        "length": 32,
        "start": 298
      },
      {
        "length": 32,
        "start": 598
      },
      {
        "length": 32,
        "start": 1238
      }
    ],
    "1368": [
      {
        "length": 32,
        "start": 1491
      },
      {
        "length": 32,
        "start": 1620
      },
      {
        "length": 32,
        "start": 1776
      },
      {
        "length": 32,
        "start": 2158
      },
      {
        "length": 32,
        "start": 2400
      }
    ]
  },
  "source": "// contracts/FlashLoan.sol\r\n// SPDX-License-Identifier: MIT\r\npragma solidity 0.8.10;\r\n\r\nimport {FlashLoanSimpleReceiverBase} from \"@aave/core-v3/contracts/flashloan/base/FlashLoanSimpleReceiverBase.sol\";\r\nimport {IPoolAddressesProvider} from \"@aave/core-v3/contracts/interfaces/IPoolAddressesProvider.sol\";\r\nimport {IERC20} from \"@aave/core-v3/contracts/dependencies/openzeppelin/contracts/IERC20.sol\";\r\n\r\nimport './interfaces/IUniswapV2Router02.sol';\r\nimport './interfaces/IUniswapV2Factory.sol';\r\n\r\ncontract FlashLoan is FlashLoanSimpleReceiverBase {\r\naddress payable owner;\r\naddress immutable Router;\r\n\r\n    constructor(address _addressProvider)\r\n        FlashLoanSimpleReceiverBase(IPoolAddressesProvider(_addressProvider))\r\n    {\r\n        owner = payable(msg.sender);\r\n        Router = 0x7a250d5630B4cF539739dF2C5dAcb4c659F2488D;\r\n        // 0xf164fC0Ec4E93095b804a4795bBe1e041497b92a\r\n    }\r\n\r\n    \r\n    \r\n    address token0;\r\n    address token1;\r\n\r\n    uint256 Amount;\r\n    // uint deadline = block.timestamp;\r\n\r\n    function executeOperation(\r\n        address asset,\r\n        uint256 amount,\r\n        uint256 premium,\r\n        address initiator,\r\n        bytes calldata params\r\n    ) external override returns (bool) {\r\n\r\n        swap(asset,token1,amount);\r\n        swap(token1,asset,IERC20(token1).balanceOf(address(this)));\r\n\r\n        uint256 amountOwed = Amount + premium;\r\n        IERC20(token0).approve(address(POOL), amountOwed);\r\n\r\n        return true;\r\n    }\r\n\r\n    function swap(address _tokenIn, address _tokenOut, uint256 _amountIn) internal {\r\n      \r\n    // IERC20(_tokenIn).transferFrom(msg.sender, address(this), _amountIn);\r\n    \r\n    IERC20(_tokenIn).approve(Router, _amountIn);\r\n\r\n    address[] memory path;\r\n    if (_tokenIn == IUniswapV2Router01(Router).WETH() || _tokenOut == IUniswapV2Router01(Router).WETH()) {\r\n      path = new address[](2);\r\n      path[0] = _tokenIn;\r\n      path[1] = _tokenOut;\r\n    } else {\r\n      path = new address[](3);\r\n      path[0] = _tokenIn;\r\n      path[1] = IUniswapV2Router01(Router).WETH();\r\n      path[2] = _tokenOut;\r\n    }\r\n        IUniswapV2Router02(Router).swapExactTokensForTokens(_amountIn, 0, path, address(this), block.timestamp+96400);\r\n    }\r\n\r\n//     function Swap(address _token0,address _token1,uint256 _amount) internal {\r\n//     address[] memory path= new address[](2);\r\n\r\n//         path[0] =_token0;\r\n//         path[1] =_token1;\r\n\r\n//             IERC20(_token0).approve(Router, _amount);\r\n\r\n//         // require(IUniswapV2Factory(Router).getPair(path[0], path[1]) != address(0),\" The pair doesnt exist\");\r\n        \r\n//      IUniswapV2Router02(Router).swapExactTokensForTokens(\r\n//         _amount,\r\n//         0,\r\n//         path,\r\n//         address(this),\r\n//         block.timestamp+86400\r\n// );\r\n//     }\r\n    function requestFlashLoan(address _token,address tokenb, uint256 _amount) public {\r\n        address receiverAddress = address(this);\r\n        Amount = _amount;\r\n        bytes memory params = \"\";\r\n        uint16 referralCode = 0;\r\n        token0 = _token;\r\n        token1 = tokenb;\r\n        POOL.flashLoanSimple(\r\n            receiverAddress,\r\n            token0,\r\n            Amount,\r\n            params,\r\n            referralCode\r\n        );\r\n    }\r\n    function getBalance(address _tokenAddress) external view returns (uint256) {\r\n        return IERC20(_tokenAddress).balanceOf(address(this));\r\n    }\r\n    function withdraw(address _tokenAddress) external onlyOwner {\r\n        IERC20 token = IERC20(_tokenAddress);\r\n        token.transfer(msg.sender, token.balanceOf(address(this)));\r\n    }\r\n    modifier onlyOwner() {\r\n        require(\r\n            msg.sender == owner,\r\n            \"Only the contract owner can call this function\"\r\n        );\r\n        _;\r\n    }\r\n    receive() external payable {}\r\n}",
  "sourcePath": "D:\\truffle\\contracts\\FlashLoan.sol",
  "compiler": {
    "name": "solc",
    "version": "0.8.10+commit.fc410830.Emscripten.clang"
  },
  "schemaVersion": "3.4.11",
  "updatedAt": "2022-12-15T13:48:11.026Z",
  "devdoc": {
    "kind": "dev",
    "methods": {
      "executeOperation(address,uint256,uint256,address,bytes)": {
        "details": "Ensure that the contract can return the debt + premium, e.g., has      enough funds to repay and has approved the Pool to pull the total amount",
        "params": {
          "amount": "The amount of the flash-borrowed asset",
          "asset": "The address of the flash-borrowed asset",
          "initiator": "The address of the flashloan initiator",
          "params": "The byte-encoded params passed when initiating the flashloan",
          "premium": "The fee of the flash-borrowed asset"
        },
        "returns": {
          "_0": "True if the execution of the operation succeeds, false otherwise"
        }
      }
    },
    "version": 1
  },
  "userdoc": {
    "kind": "user",
    "methods": {
      "executeOperation(address,uint256,uint256,address,bytes)": {
        "notice": "Executes an operation after receiving the flash-borrowed asset"
      }
    },
    "version": 1
  }
}